{
  "contractName": "PredictionMarket",
  "abi": [
    {
      "inputs": [
        {
          "internalType": "uint256",
          "name": "",
          "type": "uint256"
        }
      ],
      "name": "markets",
      "outputs": [
        {
          "internalType": "uint256",
          "name": "id",
          "type": "uint256"
        },
        {
          "internalType": "string",
          "name": "title",
          "type": "string"
        },
        {
          "internalType": "string",
          "name": "optionA",
          "type": "string"
        },
        {
          "internalType": "string",
          "name": "optionB",
          "type": "string"
        },
        {
          "internalType": "uint256",
          "name": "endTime",
          "type": "uint256"
        },
        {
          "internalType": "uint256",
          "name": "poolA",
          "type": "uint256"
        },
        {
          "internalType": "uint256",
          "name": "poolB",
          "type": "uint256"
        },
        {
          "internalType": "enum PredictionMarket.Stage",
          "name": "stage",
          "type": "uint8"
        },
        {
          "internalType": "uint8",
          "name": "winningOutcome",
          "type": "uint8"
        },
        {
          "internalType": "address",
          "name": "creator",
          "type": "address"
        }
      ],
      "stateMutability": "view",
      "type": "function",
      "constant": true
    },
    {
      "inputs": [],
      "name": "nextMarketId",
      "outputs": [
        {
          "internalType": "uint256",
          "name": "",
          "type": "uint256"
        }
      ],
      "stateMutability": "view",
      "type": "function",
      "constant": true
    },
    {
      "inputs": [
        {
          "internalType": "uint256",
          "name": "",
          "type": "uint256"
        },
        {
          "internalType": "address",
          "name": "",
          "type": "address"
        }
      ],
      "name": "userBets",
      "outputs": [
        {
          "internalType": "uint256",
          "name": "amount",
          "type": "uint256"
        },
        {
          "internalType": "uint8",
          "name": "choice",
          "type": "uint8"
        },
        {
          "internalType": "bool",
          "name": "exists",
          "type": "bool"
        }
      ],
      "stateMutability": "view",
      "type": "function",
      "constant": true
    },
    {
      "inputs": [
        {
          "internalType": "string",
          "name": "_title",
          "type": "string"
        },
        {
          "internalType": "string",
          "name": "_opA",
          "type": "string"
        },
        {
          "internalType": "string",
          "name": "_opB",
          "type": "string"
        },
        {
          "internalType": "uint256",
          "name": "_durationSeconds",
          "type": "uint256"
        }
      ],
      "name": "createMarket",
      "outputs": [],
      "stateMutability": "nonpayable",
      "type": "function"
    },
    {
      "inputs": [
        {
          "internalType": "uint256",
          "name": "_marketId",
          "type": "uint256"
        },
        {
          "internalType": "uint8",
          "name": "_choice",
          "type": "uint8"
        }
      ],
      "name": "placeBet",
      "outputs": [],
      "stateMutability": "payable",
      "type": "function",
      "payable": true
    },
    {
      "inputs": [
        {
          "internalType": "uint256",
          "name": "_marketId",
          "type": "uint256"
        },
        {
          "internalType": "uint8",
          "name": "_outcome",
          "type": "uint8"
        }
      ],
      "name": "resolveMarket",
      "outputs": [],
      "stateMutability": "nonpayable",
      "type": "function"
    },
    {
      "inputs": [],
      "name": "getMarkets",
      "outputs": [
        {
          "components": [
            {
              "internalType": "uint256",
              "name": "id",
              "type": "uint256"
            },
            {
              "internalType": "string",
              "name": "title",
              "type": "string"
            },
            {
              "internalType": "string",
              "name": "optionA",
              "type": "string"
            },
            {
              "internalType": "string",
              "name": "optionB",
              "type": "string"
            },
            {
              "internalType": "uint256",
              "name": "endTime",
              "type": "uint256"
            },
            {
              "internalType": "uint256",
              "name": "poolA",
              "type": "uint256"
            },
            {
              "internalType": "uint256",
              "name": "poolB",
              "type": "uint256"
            },
            {
              "internalType": "enum PredictionMarket.Stage",
              "name": "stage",
              "type": "uint8"
            },
            {
              "internalType": "uint8",
              "name": "winningOutcome",
              "type": "uint8"
            },
            {
              "internalType": "address",
              "name": "creator",
              "type": "address"
            }
          ],
          "internalType": "struct PredictionMarket.Market[]",
          "name": "",
          "type": "tuple[]"
        }
      ],
      "stateMutability": "view",
      "type": "function",
      "constant": true
    },
    {
      "inputs": [
        {
          "internalType": "uint256",
          "name": "_marketId",
          "type": "uint256"
        }
      ],
      "name": "claimGain",
      "outputs": [],
      "stateMutability": "nonpayable",
      "type": "function"
    }
  ],
  "bytecode": "0x608060405234801561001057600080fd5b506112f9806100206000396000f3fe60806040526004361061007b5760003560e01c8063b1283e771161004e578063b1283e7714610145578063c21034cf1461017b578063df55406e1461019b578063ec2c9016146101bb57600080fd5b806303edf91414610080578063406ef2ef1461009557806376e00406146100be5780637d06a8e1146100de575b600080fd5b61009361008e366004610d21565b6101dd565b005b3480156100a157600080fd5b506100ab60025481565b6040519081526020015b60405180910390f35b3480156100ca57600080fd5b506100936100d9366004610dfa565b6103e1565b3480156100ea57600080fd5b506101266100f9366004610e8a565b60016020818152600093845260408085209091529183529120805491015460ff8082169161010090041683565b6040805193845260ff90921660208401521515908201526060016100b5565b34801561015157600080fd5b50610165610160366004610ebb565b6105a0565b6040516100b59a99989796959493929190610f52565b34801561018757600080fd5b50610093610196366004610ebb565b6107ab565b3480156101a757600080fd5b506100936101b6366004610d21565b6109e7565b3480156101c757600080fd5b506101d0610a80565b6040516100b59190610fe1565b60008083815481106101f1576101f16110e3565b90600052602060002090600802019050806004015442106102485760405162461bcd60e51b815260206004820152600c60248201526b50617269207465726d696e6560a01b60448201526064015b60405180910390fd5b6000341161028e5760405162461bcd60e51b8152602060048201526013602482015272135bdb9d185b9d081a5b9cdd59999a5cd85b9d606a1b604482015260640161023f565b60ff821615806102a157508160ff166001145b6102de5760405162461bcd60e51b815260206004820152600e60248201526d43686f697820696e76616c69646560901b604482015260640161023f565b6000838152600160209081526040808320338452909152902080541561036c57600181015460ff8481169116146103675760405162461bcd60e51b815260206004820152602760248201527f566f7573206176657a2064656a6120706172696520737572206c2761757472656044820152661037b83a34b7b760c91b606482015260840161023f565b61037e565b60018101805460ff191660ff85161790555b34816000016000828254610392919061110f565b909155505060ff83166000036103c157348260050160008282546103b6919061110f565b909155506103db9050565b348260060160008282546103d5919061110f565b90915550505b50505050565b600081116104225760405162461bcd60e51b815260206004820152600e60248201526d447572656520696e76616c69646560901b604482015260640161023f565b600060405180610140016040528060025481526020018681526020018581526020018481526020018342610456919061110f565b815260200160008152602001600081526020016000600281111561047c5761047c610f1a565b815260006020808301829052336040909301929092528354600181810186559482529082902083516008909202019081559082015191929091908201906104c390826111b1565b50604082015160028201906104d890826111b1565b50606082015160038201906104ed90826111b1565b506080820151600482015560a0820151600582015560c0820151600682015560e082015160078201805460ff1916600183600281111561052f5761052f610f1a565b02179055506101008281015160079092018054610120909401516001600160a01b0316620100000262010000600160b01b031960ff90941690920292909216610100600160b01b0319909316929092179190911790556002805490600061059583611271565b919050555050505050565b600081815481106105b057600080fd5b600091825260209091206008909102018054600182018054919350906105d590611128565b80601f016020809104026020016040519081016040528092919081815260200182805461060190611128565b801561064e5780601f106106235761010080835404028352916020019161064e565b820191906000526020600020905b81548152906001019060200180831161063157829003601f168201915b50505050509080600201805461066390611128565b80601f016020809104026020016040519081016040528092919081815260200182805461068f90611128565b80156106dc5780601f106106b1576101008083540402835291602001916106dc565b820191906000526020600020905b8154815290600101906020018083116106bf57829003601f168201915b5050505050908060030180546106f190611128565b80601f016020809104026020016040519081016040528092919081815260200182805461071d90611128565b801561076a5780601f1061073f5761010080835404028352916020019161076a565b820191906000526020600020905b81548152906001019060200180831161074d57829003601f168201915b505050506004830154600584015460068501546007909501549394919390925060ff808216916101008104909116906201000090046001600160a01b03168a565b60008082815481106107bf576107bf6110e3565b6000918252602090912060089091020190506002600782015460ff1660028111156107ec576107ec610f1a565b1461082d5760405162461bcd60e51b81526020600482015260116024820152704d6172636865206e6f6e207265736f6c7560781b604482015260640161023f565b6000828152600160209081526040808320338452909152902080546108885760405162461bcd60e51b8152602060048201526011602482015270417563756e20706172692074726f75766560781b604482015260640161023f565b6007820154600182015460ff90811661010090920416146108e35760405162461bcd60e51b8152602060048201526015602482015274566f7573206e276176657a20706173206761676e6560581b604482015260640161023f565b6007820154600090610100900460ff1615610902578260060154610908565b82600501545b90506000811161095a5760405162461bcd60e51b815260206004820152601a60248201527f417563756e65206d69736520737572206c65206761676e616e74000000000000604482015260640161023f565b6007830154600090610100900460ff161561097957836005015461097f565b83600601545b9050600082828560000154610994919061128a565b61099e91906112a1565b84546109aa919061110f565b6000808655604051919250339183156108fc0291849190818181858888f193505050501580156109de573d6000803e3d6000fd5b50505050505050565b60008083815481106109fb576109fb6110e3565b906000526020600020906008020190508060040154421015610a575760405162461bcd60e51b81526020600482015260156024820152744576656e656d656e74206e6f6e207465726d696e6560581b604482015260640161023f565b600701805460ff1960ff93909316610100029290921661ffff1990921691909117600217905550565b60606000805480602002602001604051908101604052809291908181526020016000905b82821015610d1857838290600052602060002090600802016040518061014001604052908160008201548152602001600182018054610ae290611128565b80601f0160208091040260200160405190810160405280929190818152602001828054610b0e90611128565b8015610b5b5780601f10610b3057610100808354040283529160200191610b5b565b820191906000526020600020905b815481529060010190602001808311610b3e57829003601f168201915b50505050508152602001600282018054610b7490611128565b80601f0160208091040260200160405190810160405280929190818152602001828054610ba090611128565b8015610bed5780601f10610bc257610100808354040283529160200191610bed565b820191906000526020600020905b815481529060010190602001808311610bd057829003601f168201915b50505050508152602001600382018054610c0690611128565b80601f0160208091040260200160405190810160405280929190818152602001828054610c3290611128565b8015610c7f5780601f10610c5457610100808354040283529160200191610c7f565b820191906000526020600020905b815481529060010190602001808311610c6257829003601f168201915b5050509183525050600482015460208201526005820154604082015260068201546060820152600782015460809091019060ff166002811115610cc457610cc4610f1a565b6002811115610cd557610cd5610f1a565b815260079190910154610100810460ff16602080840191909152620100009091046001600160a01b03166040909201919091529082526001929092019101610aa4565b50505050905090565b60008060408385031215610d3457600080fd5b82359150602083013560ff81168114610d4c57600080fd5b809150509250929050565b634e487b7160e01b600052604160045260246000fd5b600082601f830112610d7e57600080fd5b813567ffffffffffffffff80821115610d9957610d99610d57565b604051601f8301601f19908116603f01168101908282118183101715610dc157610dc1610d57565b81604052838152866020858801011115610dda57600080fd5b836020870160208301376000602085830101528094505050505092915050565b60008060008060808587031215610e1057600080fd5b843567ffffffffffffffff80821115610e2857600080fd5b610e3488838901610d6d565b95506020870135915080821115610e4a57600080fd5b610e5688838901610d6d565b94506040870135915080821115610e6c57600080fd5b50610e7987828801610d6d565b949793965093946060013593505050565b60008060408385031215610e9d57600080fd5b8235915060208301356001600160a01b0381168114610d4c57600080fd5b600060208284031215610ecd57600080fd5b5035919050565b6000815180845260005b81811015610efa57602081850181015186830182015201610ede565b506000602082860101526020601f19601f83011685010191505092915050565b634e487b7160e01b600052602160045260246000fd5b60038110610f4e57634e487b7160e01b600052602160045260246000fd5b9052565b60006101408c8352806020840152610f6c8184018d610ed4565b90508281036040840152610f80818c610ed4565b90508281036060840152610f94818b610ed4565b9150508760808301528660a08301528560c0830152610fb660e0830186610f30565b60ff939093166101008201526001600160a01b03919091166101209091015298975050505050505050565b60006020808301818452808551808352604092508286019150828160051b87010184880160005b838110156110d557603f1989840301855281516101408151855288820151818a87015261103782870182610ed4565b915050878201518582038987015261104f8282610ed4565b915050606080830151868303828801526110698382610ed4565b92505050608080830151818701525060a080830151818701525060c080830151818701525060e0808301516110a082880182610f30565b50506101008281015160ff1690860152610120918201516001600160a01b031691909401529386019390860190600101611008565b509098975050505050505050565b634e487b7160e01b600052603260045260246000fd5b634e487b7160e01b600052601160045260246000fd5b80820180821115611122576111226110f9565b92915050565b600181811c9082168061113c57607f821691505b60208210810361115c57634e487b7160e01b600052602260045260246000fd5b50919050565b601f8211156111ac57600081815260208120601f850160051c810160208610156111895750805b601f850160051c820191505b818110156111a857828155600101611195565b5050505b505050565b815167ffffffffffffffff8111156111cb576111cb610d57565b6111df816111d98454611128565b84611162565b602080601f83116001811461121457600084156111fc5750858301515b600019600386901b1c1916600185901b1785556111a8565b600085815260208120601f198616915b8281101561124357888601518255948401946001909101908401611224565b50858210156112615787850151600019600388901b60f8161c191681555b5050505050600190811b01905550565b600060018201611283576112836110f9565b5060010190565b8082028115828204841417611122576111226110f9565b6000826112be57634e487b7160e01b600052601260045260246000fd5b50049056fea2646970667358221220efda515cc72a31d3b13b02a3c89412e727860281d0f119bef636f757a117b8fd64736f6c63430008140033",
  "immutableReferences": {},
  "source": "// SPDX-License-Identifier: MIT\r\npragma solidity ^0.8.20;\r\n\r\ncontract PredictionMarket {\r\n    enum Stage { Active, Pending, Resolved }\r\n\r\n    struct Market {\r\n        uint256 id;\r\n        string title;\r\n        string optionA;\r\n        string optionB;\r\n        uint256 endTime;\r\n        uint256 poolA;\r\n        uint256 poolB;\r\n        Stage stage;\r\n        uint8 winningOutcome;\r\n        address creator;\r\n    }\r\n\r\n    struct Bet {\r\n        uint256 amount;\r\n        uint8 choice; // 0 ou 1\r\n        bool exists;\r\n    }\r\n\r\n    Market[] public markets;\r\n    mapping(uint256 => mapping(address => Bet)) public userBets;\r\n    uint256 public nextMarketId;\r\n\r\n    function createMarket(\r\n        string memory _title, \r\n        string memory _opA, \r\n        string memory _opB, \r\n        uint256 _durationSeconds\r\n    ) external {\r\n        require(_durationSeconds > 0, \"Duree invalide\");\r\n        \r\n        markets.push(Market({\r\n            id: nextMarketId,\r\n            title: _title,\r\n            optionA: _opA,\r\n            optionB: _opB,\r\n            endTime: block.timestamp + _durationSeconds,\r\n            poolA: 0,\r\n            poolB: 0,\r\n            stage: Stage.Active,\r\n            winningOutcome: 0,\r\n            creator: msg.sender\r\n        }));\r\n        nextMarketId++;\r\n    }\r\n\r\n    function placeBet(uint256 _marketId, uint8 _choice) external payable {\r\n        Market storage m = markets[_marketId];\r\n        require(block.timestamp < m.endTime, \"Pari termine\");\r\n        require(msg.value > 0, \"Montant insuffisant\");\r\n        require(_choice == 0 || _choice == 1, \"Choix invalide\");\r\n\r\n        Bet storage userBet = userBets[_marketId][msg.sender];\r\n\r\n        // LOGIQUE DE RESTRICTION\r\n        if (userBet.amount > 0) {\r\n            // Si l'utilisateur a deja mise, il DOIT choisir la meme option\r\n            require(userBet.choice == _choice, \"Vous avez deja parie sur l'autre option\");\r\n        } else {\r\n            // Premier pari : on enregistre son choix\r\n            userBet.choice = _choice;\r\n        }\r\n\r\n        userBet.amount += msg.value;\r\n        \r\n        if (_choice == 0) m.poolA += msg.value;\r\n        else m.poolB += msg.value;\r\n    }\r\n\r\n    function resolveMarket(uint256 _marketId, uint8 _outcome) external {\r\n        Market storage m = markets[_marketId];\r\n        require(block.timestamp >= m.endTime, \"Evenement non termine\");\r\n        m.winningOutcome = _outcome;\r\n        m.stage = Stage.Resolved;\r\n    }\r\n\r\n    function getMarkets() external view returns (Market[] memory) {\r\n        return markets;\r\n    }\r\n\r\n    // --- NOUVELLE FONCTION DE RETRAIT ---\r\n    function claimGain(uint256 _marketId) external {\r\n        Market storage m = markets[_marketId];\r\n        \r\n        require(m.stage == Stage.Resolved, \"Marche non resolu\");\r\n        \r\n        Bet storage userBet = userBets[_marketId][msg.sender];\r\n        require(userBet.amount > 0, \"Aucun pari trouve\");\r\n        require(userBet.choice == m.winningOutcome, \"Vous n'avez pas gagne\");\r\n\r\n        uint256 winningPool = (m.winningOutcome == 0) ? m.poolA : m.poolB;\r\n        require(winningPool > 0, \"Aucune mise sur le gagnant\");\r\n        uint256 losingPool = (m.winningOutcome == 0) ? m.poolB : m.poolA;\r\n\r\n        // Formule Polymarket : Mise + Part proportionnelle du pool perdant\r\n        // Gain = MiseUser + (MiseUser / TotalMisesGagnantes) * TotalMisesPerdantes\r\n        uint256 reward = userBet.amount + (userBet.amount * losingPool / winningPool);\r\n\r\n        userBet.amount = 0; // Scurit anti-rentrance : on vide avant d'envoyer\r\n        \r\n        payable(msg.sender).transfer(reward);\r\n    }\r\n}",
  "sourcePath": "C:\\Users\\bapti\\Documents\\INSA\\Cours\\Cryptography-Blockchain\\M1_Cryptography_Blockchain\\contracts\\PredictionMarket.sol",
  "compiler": {
    "name": "solc",
    "version": "0.8.20+commit.a1b79de6.Emscripten.clang"
  },
  "schemaVersion": "3.4.16",
  "updatedAt": "2026-01-27T16:30:06.630Z",
  "networkType": "ethereum",
  "devdoc": {
    "kind": "dev",
    "methods": {},
    "version": 1
  },
  "userdoc": {
    "kind": "user",
    "methods": {},
    "version": 1
  }
}