{
  "contractName": "UMAOptimisticOracleMock",
  "abi": [
    {
      "inputs": [
        {
          "internalType": "bytes32",
          "name": "",
          "type": "bytes32"
        }
      ],
      "name": "prices",
      "outputs": [
        {
          "internalType": "uint256",
          "name": "",
          "type": "uint256"
        }
      ],
      "stateMutability": "view",
      "type": "function",
      "constant": true
    },
    {
      "inputs": [
        {
          "internalType": "bytes32",
          "name": "",
          "type": "bytes32"
        }
      ],
      "name": "timestamps",
      "outputs": [
        {
          "internalType": "uint256",
          "name": "",
          "type": "uint256"
        }
      ],
      "stateMutability": "view",
      "type": "function",
      "constant": true
    },
    {
      "inputs": [
        {
          "internalType": "address",
          "name": "",
          "type": "address"
        },
        {
          "internalType": "bytes32",
          "name": "identifier",
          "type": "bytes32"
        },
        {
          "internalType": "uint256",
          "name": "timestamp",
          "type": "uint256"
        },
        {
          "internalType": "bytes",
          "name": "ancillaryData",
          "type": "bytes"
        }
      ],
      "name": "proposePrice",
      "outputs": [],
      "stateMutability": "nonpayable",
      "type": "function"
    },
    {
      "inputs": [
        {
          "internalType": "address",
          "name": "",
          "type": "address"
        },
        {
          "internalType": "bytes32",
          "name": "",
          "type": "bytes32"
        },
        {
          "internalType": "uint256",
          "name": "",
          "type": "uint256"
        },
        {
          "internalType": "bytes",
          "name": "",
          "type": "bytes"
        }
      ],
      "name": "disputePrice",
      "outputs": [],
      "stateMutability": "nonpayable",
      "type": "function"
    },
    {
      "inputs": [
        {
          "internalType": "address",
          "name": "",
          "type": "address"
        },
        {
          "internalType": "bytes32",
          "name": "identifier",
          "type": "bytes32"
        },
        {
          "internalType": "uint256",
          "name": "",
          "type": "uint256"
        }
      ],
      "name": "getPrice",
      "outputs": [
        {
          "internalType": "bool",
          "name": "",
          "type": "bool"
        },
        {
          "internalType": "uint256",
          "name": "",
          "type": "uint256"
        },
        {
          "internalType": "uint256",
          "name": "",
          "type": "uint256"
        }
      ],
      "stateMutability": "view",
      "type": "function",
      "constant": true
    }
  ],
  "bytecode": "0x608060405234801561001057600080fd5b506102b8806100206000396000f3fe608060405234801561001057600080fd5b50600436106100575760003560e01c80633ec6cbaa1461005c57806360846bc6146100ae57806386e77c13146100dc578063b5872958146100f1578063fba7f1e314610111575b600080fd5b61008c61006a366004610178565b5060009081526020818152604080832054600192839052922054909391925090565b6040805193151584526020840192909252908201526060015b60405180910390f35b6100ce6100bc3660046101ab565b60006020819052908152604090205481565b6040519081526020016100a5565b6100ef6100ea3660046101c4565b610126565b005b6100ce6100ff3660046101ab565b60016020526000908152604090205481565b6100ef61011f3660046101c4565b5050505050565b600061013482840184610258565b60009586526020868152604080882060ff909316909255600190529094209290925550505050565b80356001600160a01b038116811461017357600080fd5b919050565b60008060006060848603121561018d57600080fd5b6101968461015c565b95602085013595506040909401359392505050565b6000602082840312156101bd57600080fd5b5035919050565b6000806000806000608086880312156101dc57600080fd5b6101e58661015c565b94506020860135935060408601359250606086013567ffffffffffffffff8082111561021057600080fd5b818801915088601f83011261022457600080fd5b81358181111561023357600080fd5b89602082850101111561024557600080fd5b9699959850939650602001949392505050565b60006020828403121561026a57600080fd5b813560ff8116811461027b57600080fd5b939250505056fea26469706673582212209dec15f3ee33b2eaacfa7226fa8a3619d59c34a4b7eff47dda3c324e7d06334164736f6c63430008140033",
  "immutableReferences": {},
  "source": "// SPDX-License-Identifier: MIT\r\npragma solidity ^0.8.20;\r\n\r\ncontract UMAOptimisticOracleMock {\r\n    mapping(bytes32 => uint256) public prices;\r\n    mapping(bytes32 => uint256) public timestamps;\r\n\r\n    function proposePrice(\r\n        address,\r\n        bytes32 identifier,\r\n        uint256 timestamp,\r\n        bytes calldata ancillaryData\r\n    ) external {\r\n        uint8 outcome = abi.decode(ancillaryData, (uint8));\r\n        prices[identifier] = outcome;\r\n        timestamps[identifier] = timestamp;\r\n    }\r\n\r\n    function disputePrice(\r\n        address,\r\n        bytes32,\r\n        uint256,\r\n        bytes calldata\r\n    ) external {}\r\n\r\n    function getPrice(\r\n        address,\r\n        bytes32 identifier,\r\n        uint256\r\n    ) external view returns (bool, uint256, uint256) {\r\n        return (true, prices[identifier], timestamps[identifier]);\r\n    }\r\n}\r\n",
  "sourcePath": "C:\\Users\\ACER\\Documents\\GitHub\\M1_Dapp_Polymarket\\contracts\\UMAOptimisticOracleMock.sol",
  "compiler": {
    "name": "solc",
    "version": "0.8.20+commit.a1b79de6.Emscripten.clang"
  },
  "schemaVersion": "3.4.16",
  "updatedAt": "2026-01-27T15:03:50.458Z",
  "networkType": "ethereum",
  "devdoc": {
    "kind": "dev",
    "methods": {},
    "version": 1
  },
  "userdoc": {
    "kind": "user",
    "methods": {},
    "version": 1
  }
}