{
  "contractName": "PredictionMarket",
  "abi": [
    {
      "inputs": [
        {
          "internalType": "address",
          "name": "_oracleAddress",
          "type": "address"
        }
      ],
      "stateMutability": "nonpayable",
      "type": "constructor"
    },
    {
      "inputs": [],
      "name": "ECDSAInvalidSignature",
      "type": "error"
    },
    {
      "inputs": [
        {
          "internalType": "uint256",
          "name": "length",
          "type": "uint256"
        }
      ],
      "name": "ECDSAInvalidSignatureLength",
      "type": "error"
    },
    {
      "inputs": [
        {
          "internalType": "bytes32",
          "name": "s",
          "type": "bytes32"
        }
      ],
      "name": "ECDSAInvalidSignatureS",
      "type": "error"
    },
    {
      "inputs": [
        {
          "internalType": "uint256",
          "name": "",
          "type": "uint256"
        }
      ],
      "name": "markets",
      "outputs": [
        {
          "internalType": "uint256",
          "name": "id",
          "type": "uint256"
        },
        {
          "internalType": "string",
          "name": "title",
          "type": "string"
        },
        {
          "internalType": "string",
          "name": "optionA",
          "type": "string"
        },
        {
          "internalType": "string",
          "name": "optionB",
          "type": "string"
        },
        {
          "internalType": "uint256",
          "name": "endTime",
          "type": "uint256"
        },
        {
          "internalType": "uint256",
          "name": "poolA",
          "type": "uint256"
        },
        {
          "internalType": "uint256",
          "name": "poolB",
          "type": "uint256"
        },
        {
          "internalType": "enum PredictionMarket.Stage",
          "name": "stage",
          "type": "uint8"
        },
        {
          "internalType": "uint8",
          "name": "winningOutcome",
          "type": "uint8"
        },
        {
          "internalType": "address",
          "name": "creator",
          "type": "address"
        }
      ],
      "stateMutability": "view",
      "type": "function",
      "constant": true
    },
    {
      "inputs": [],
      "name": "nextMarketId",
      "outputs": [
        {
          "internalType": "uint256",
          "name": "",
          "type": "uint256"
        }
      ],
      "stateMutability": "view",
      "type": "function",
      "constant": true
    },
    {
      "inputs": [],
      "name": "oracleAddress",
      "outputs": [
        {
          "internalType": "address",
          "name": "",
          "type": "address"
        }
      ],
      "stateMutability": "view",
      "type": "function",
      "constant": true
    },
    {
      "inputs": [
        {
          "internalType": "uint256",
          "name": "",
          "type": "uint256"
        },
        {
          "internalType": "address",
          "name": "",
          "type": "address"
        }
      ],
      "name": "userBets",
      "outputs": [
        {
          "internalType": "uint256",
          "name": "amount",
          "type": "uint256"
        },
        {
          "internalType": "uint8",
          "name": "choice",
          "type": "uint8"
        },
        {
          "internalType": "bool",
          "name": "exists",
          "type": "bool"
        }
      ],
      "stateMutability": "view",
      "type": "function",
      "constant": true
    },
    {
      "inputs": [
        {
          "internalType": "string",
          "name": "_title",
          "type": "string"
        },
        {
          "internalType": "string",
          "name": "_opA",
          "type": "string"
        },
        {
          "internalType": "string",
          "name": "_opB",
          "type": "string"
        },
        {
          "internalType": "uint256",
          "name": "_durationSeconds",
          "type": "uint256"
        }
      ],
      "name": "createMarket",
      "outputs": [],
      "stateMutability": "nonpayable",
      "type": "function"
    },
    {
      "inputs": [
        {
          "internalType": "uint256",
          "name": "_marketId",
          "type": "uint256"
        },
        {
          "internalType": "uint8",
          "name": "_choice",
          "type": "uint8"
        }
      ],
      "name": "placeBet",
      "outputs": [],
      "stateMutability": "payable",
      "type": "function",
      "payable": true
    },
    {
      "inputs": [
        {
          "internalType": "uint256",
          "name": "_marketId",
          "type": "uint256"
        },
        {
          "internalType": "uint8",
          "name": "_outcome",
          "type": "uint8"
        },
        {
          "internalType": "bytes",
          "name": "_signature",
          "type": "bytes"
        }
      ],
      "name": "resolveMarket",
      "outputs": [],
      "stateMutability": "nonpayable",
      "type": "function"
    },
    {
      "inputs": [
        {
          "internalType": "uint256",
          "name": "_marketId",
          "type": "uint256"
        }
      ],
      "name": "claimGain",
      "outputs": [],
      "stateMutability": "nonpayable",
      "type": "function"
    },
    {
      "inputs": [],
      "name": "getMarkets",
      "outputs": [
        {
          "components": [
            {
              "internalType": "uint256",
              "name": "id",
              "type": "uint256"
            },
            {
              "internalType": "string",
              "name": "title",
              "type": "string"
            },
            {
              "internalType": "string",
              "name": "optionA",
              "type": "string"
            },
            {
              "internalType": "string",
              "name": "optionB",
              "type": "string"
            },
            {
              "internalType": "uint256",
              "name": "endTime",
              "type": "uint256"
            },
            {
              "internalType": "uint256",
              "name": "poolA",
              "type": "uint256"
            },
            {
              "internalType": "uint256",
              "name": "poolB",
              "type": "uint256"
            },
            {
              "internalType": "enum PredictionMarket.Stage",
              "name": "stage",
              "type": "uint8"
            },
            {
              "internalType": "uint8",
              "name": "winningOutcome",
              "type": "uint8"
            },
            {
              "internalType": "address",
              "name": "creator",
              "type": "address"
            }
          ],
          "internalType": "struct PredictionMarket.Market[]",
          "name": "",
          "type": "tuple[]"
        }
      ],
      "stateMutability": "view",
      "type": "function",
      "constant": true
    }
  ],
  "bytecode": "0x608060405234801561001057600080fd5b5060405161175f38038061175f83398101604081905261002f91610054565b600080546001600160a01b0319166001600160a01b0392909216919091179055610084565b60006020828403121561006657600080fd5b81516001600160a01b038116811461007d57600080fd5b9392505050565b6116cc806100936000396000f3fe6080604052600436106100865760003560e01c80637d06a8e1116100595780637d06a8e114610109578063a89ae4ba14610173578063b1283e77146101ab578063c21034cf146101e1578063ec2c90161461020157600080fd5b806303edf9141461008b578063406ef2ef146100a057806350294f90146100c957806376e00406146100e9575b600080fd5b61009e61009936600461107e565b610223565b005b3480156100ac57600080fd5b506100b660035481565b6040519081526020015b60405180910390f35b3480156100d557600080fd5b5061009e6100e4366004611136565b61042d565b3480156100f557600080fd5b5061009e6101043660046111c8565b61060a565b34801561011557600080fd5b50610154610124366004611258565b60026020908152600092835260408084209091529082529020805460019091015460ff8082169161010090041683565b6040805193845260ff90921660208401521515908201526060016100c0565b34801561017f57600080fd5b50600054610193906001600160a01b031681565b6040516001600160a01b0390911681526020016100c0565b3480156101b757600080fd5b506101cb6101c6366004611294565b6107c9565b6040516100c09a9998979695949392919061132b565b3480156101ed57600080fd5b5061009e6101fc366004611294565b6109d4565b34801561020d57600080fd5b50610216610bc2565b6040516100c091906113ba565b600060018381548110610238576102386114bc565b906000526020600020906008020190508060040154421061028f5760405162461bcd60e51b815260206004820152600c60248201526b50617269207465726d696e6560a01b60448201526064015b60405180910390fd5b600034116102d55760405162461bcd60e51b8152602060048201526013602482015272135bdb9d185b9d081a5b9cdd59999a5cd85b9d606a1b6044820152606401610286565b60ff821615806102e857508160ff166001145b6103255760405162461bcd60e51b815260206004820152600e60248201526d43686f697820696e76616c69646560901b6044820152606401610286565b600083815260026020908152604080832033845290915290208054156103b357600181015460ff8481169116146103ae5760405162461bcd60e51b815260206004820152602760248201527f566f7573206176657a2064656a6120706172696520737572206c2761757472656044820152661037b83a34b7b760c91b6064820152608401610286565b6103ca565b60018101805461ffff191660ff8516176101001790555b348160000160008282546103de91906114e8565b909155505060ff831660000361040d573482600501600082825461040291906114e8565b909155506104279050565b3482600601600082825461042191906114e8565b90915550505b50505050565b600060018481548110610442576104426114bc565b90600052602060002090600802019050806004015442101561049e5760405162461bcd60e51b81526020600482015260156024820152744576656e656d656e74206e6f6e207465726d696e6560581b6044820152606401610286565b6002600782015460ff1660028111156104b9576104b96112f3565b036104fb5760405162461bcd60e51b81526020600482015260126024820152714d61726368652064656a61207265736f6c7560701b6044820152606401610286565b604080516bffffffffffffffffffffffff193060601b16602080830191909152603482018790526001600160f81b031960f887901b16605483015282518083036035018152605590920190925280519101207f19457468657265756d205369676e6564204d6573736167653a0a3332000000006000908152601c829052603c8120906105878286610e63565b6000549091506001600160a01b038083169116146105dc5760405162461bcd60e51b81526020600482015260126024820152715369676e617475726520696e76616c69646560701b6044820152606401610286565b505050600701805460ff1960ff94909416610100029390931661ffff19909316929092176002179091555050565b6000811161064b5760405162461bcd60e51b815260206004820152600e60248201526d447572656520696e76616c69646560901b6044820152606401610286565b60016040518061014001604052806003548152602001868152602001858152602001848152602001834261067f91906114e8565b81526020016000815260200160008152602001600060028111156106a5576106a56112f3565b815260006020808301829052336040909301929092528354600181810186559482529082902083516008909202019081559082015191929091908201906106ec9082611584565b50604082015160028201906107019082611584565b50606082015160038201906107169082611584565b506080820151600482015560a0820151600582015560c0820151600682015560e082015160078201805460ff19166001836002811115610758576107586112f3565b02179055506101008281015160079092018054610120909401516001600160a01b0316620100000262010000600160b01b031960ff90941690920292909216610100600160b01b031990931692909217919091179055600380549060006107be83611644565b919050555050505050565b600181815481106107d957600080fd5b600091825260209091206008909102018054600182018054919350906107fe906114fb565b80601f016020809104026020016040519081016040528092919081815260200182805461082a906114fb565b80156108775780601f1061084c57610100808354040283529160200191610877565b820191906000526020600020905b81548152906001019060200180831161085a57829003601f168201915b50505050509080600201805461088c906114fb565b80601f01602080910402602001604051908101604052809291908181526020018280546108b8906114fb565b80156109055780601f106108da57610100808354040283529160200191610905565b820191906000526020600020905b8154815290600101906020018083116108e857829003601f168201915b50505050509080600301805461091a906114fb565b80601f0160208091040260200160405190810160405280929190818152602001828054610946906114fb565b80156109935780601f1061096857610100808354040283529160200191610993565b820191906000526020600020905b81548152906001019060200180831161097657829003601f168201915b505050506004830154600584015460068501546007909501549394919390925060ff808216916101008104909116906201000090046001600160a01b03168a565b6000600182815481106109e9576109e96114bc565b6000918252602090912060089091020190506002600782015460ff166002811115610a1657610a166112f3565b14610a575760405162461bcd60e51b81526020600482015260116024820152704d6172636865206e6f6e207265736f6c7560781b6044820152606401610286565b600082815260026020908152604080832033845290915290208054610ab25760405162461bcd60e51b8152602060048201526011602482015270417563756e20706172692074726f75766560781b6044820152606401610286565b6007820154600182015460ff9081166101009092041614610b0d5760405162461bcd60e51b8152602060048201526015602482015274566f7573206e276176657a20706173206761676e6560581b6044820152606401610286565b6007820154600090610100900460ff1615610b2c578260060154610b32565b82600501545b6007840154909150600090610100900460ff1615610b54578360050154610b5a565b83600601545b9050600082828560000154610b6f919061165d565b610b799190611674565b8454610b8591906114e8565b6000808655604051919250339183156108fc0291849190818181858888f19350505050158015610bb9573d6000803e3d6000fd5b50505050505050565b60606001805480602002602001604051908101604052809291908181526020016000905b82821015610e5a57838290600052602060002090600802016040518061014001604052908160008201548152602001600182018054610c24906114fb565b80601f0160208091040260200160405190810160405280929190818152602001828054610c50906114fb565b8015610c9d5780601f10610c7257610100808354040283529160200191610c9d565b820191906000526020600020905b815481529060010190602001808311610c8057829003601f168201915b50505050508152602001600282018054610cb6906114fb565b80601f0160208091040260200160405190810160405280929190818152602001828054610ce2906114fb565b8015610d2f5780601f10610d0457610100808354040283529160200191610d2f565b820191906000526020600020905b815481529060010190602001808311610d1257829003601f168201915b50505050508152602001600382018054610d48906114fb565b80601f0160208091040260200160405190810160405280929190818152602001828054610d74906114fb565b8015610dc15780601f10610d9657610100808354040283529160200191610dc1565b820191906000526020600020905b815481529060010190602001808311610da457829003601f168201915b5050509183525050600482015460208201526005820154604082015260068201546060820152600782015460809091019060ff166002811115610e0657610e066112f3565b6002811115610e1757610e176112f3565b815260079190910154610100810460ff16602080840191909152620100009091046001600160a01b03166040909201919091529082526001929092019101610be6565b50505050905090565b600080600080610e738686610e8f565b925092509250610e838282610edc565b50909150505b92915050565b60008060008351604103610ec95760208401516040850151606086015160001a610ebb88828585610f99565b955095509550505050610ed5565b50508151600091506002905b9250925092565b6000826003811115610ef057610ef06112f3565b03610ef9575050565b6001826003811115610f0d57610f0d6112f3565b03610f2b5760405163f645eedf60e01b815260040160405180910390fd5b6002826003811115610f3f57610f3f6112f3565b03610f605760405163fce698f760e01b815260048101829052602401610286565b6003826003811115610f7457610f746112f3565b03610f95576040516335e2f38360e21b815260048101829052602401610286565b5050565b600080807f7fffffffffffffffffffffffffffffff5d576e7357a4501ddfe92f46681b20a0841115610fd4575060009150600390508261105e565b604080516000808252602082018084528a905260ff891692820192909252606081018790526080810186905260019060a0016020604051602081039080840390855afa158015611028573d6000803e3d6000fd5b5050604051601f1901519150506001600160a01b0381166110545750600092506001915082905061105e565b9250600091508190505b9450945094915050565b803560ff8116811461107957600080fd5b919050565b6000806040838503121561109157600080fd5b823591506110a160208401611068565b90509250929050565b634e487b7160e01b600052604160045260246000fd5b600067ffffffffffffffff808411156110db576110db6110aa565b604051601f8501601f19908116603f01168101908282118183101715611103576111036110aa565b8160405280935085815286868601111561111c57600080fd5b858560208301376000602087830101525050509392505050565b60008060006060848603121561114b57600080fd5b8335925061115b60208501611068565b9150604084013567ffffffffffffffff81111561117757600080fd5b8401601f8101861361118857600080fd5b611197868235602084016110c0565b9150509250925092565b600082601f8301126111b257600080fd5b6111c1838335602085016110c0565b9392505050565b600080600080608085870312156111de57600080fd5b843567ffffffffffffffff808211156111f657600080fd5b611202888389016111a1565b9550602087013591508082111561121857600080fd5b611224888389016111a1565b9450604087013591508082111561123a57600080fd5b50611247878288016111a1565b949793965093946060013593505050565b6000806040838503121561126b57600080fd5b8235915060208301356001600160a01b038116811461128957600080fd5b809150509250929050565b6000602082840312156112a657600080fd5b5035919050565b6000815180845260005b818110156112d3576020818501810151868301820152016112b7565b506000602082860101526020601f19601f83011685010191505092915050565b634e487b7160e01b600052602160045260246000fd5b6003811061132757634e487b7160e01b600052602160045260246000fd5b9052565b60006101408c83528060208401526113458184018d6112ad565b90508281036040840152611359818c6112ad565b9050828103606084015261136d818b6112ad565b9150508760808301528660a08301528560c083015261138f60e0830186611309565b60ff939093166101008201526001600160a01b03919091166101209091015298975050505050505050565b60006020808301818452808551808352604092508286019150828160051b87010184880160005b838110156114ae57603f1989840301855281516101408151855288820151818a870152611410828701826112ad565b915050878201518582038987015261142882826112ad565b9150506060808301518683038288015261144283826112ad565b92505050608080830151818701525060a080830151818701525060c080830151818701525060e08083015161147982880182611309565b50506101008281015160ff1690860152610120918201516001600160a01b0316919094015293860193908601906001016113e1565b509098975050505050505050565b634e487b7160e01b600052603260045260246000fd5b634e487b7160e01b600052601160045260246000fd5b80820180821115610e8957610e896114d2565b600181811c9082168061150f57607f821691505b60208210810361152f57634e487b7160e01b600052602260045260246000fd5b50919050565b601f82111561157f57600081815260208120601f850160051c8101602086101561155c5750805b601f850160051c820191505b8181101561157b57828155600101611568565b5050505b505050565b815167ffffffffffffffff81111561159e5761159e6110aa565b6115b2816115ac84546114fb565b84611535565b602080601f8311600181146115e757600084156115cf5750858301515b600019600386901b1c1916600185901b17855561157b565b600085815260208120601f198616915b82811015611616578886015182559484019460019091019084016115f7565b50858210156116345787850151600019600388901b60f8161c191681555b5050505050600190811b01905550565b600060018201611656576116566114d2565b5060010190565b8082028115828204841417610e8957610e896114d2565b60008261169157634e487b7160e01b600052601260045260246000fd5b50049056fea26469706673582212207474bab25bf9c5afb6857402c2bdfe58e21e8320d9cd1104c0310be4322461d664736f6c63430008140033",
  "immutableReferences": {},
  "source": "// SPDX-License-Identifier: MIT\r\npragma solidity ^0.8.20;\r\n\r\nimport \"@openzeppelin/contracts/utils/cryptography/ECDSA.sol\";\r\nimport \"@openzeppelin/contracts/utils/cryptography/MessageHashUtils.sol\";\r\n\r\ncontract PredictionMarket {\r\n    using ECDSA for bytes32;\r\n\r\n    enum Stage { Active, Pending, Resolved }\r\n\r\n    struct Market {\r\n        uint256 id;\r\n        string title;\r\n        string optionA;\r\n        string optionB;\r\n        uint256 endTime;\r\n        uint256 poolA;\r\n        uint256 poolB;\r\n        Stage stage;\r\n        uint8 winningOutcome;\r\n        address creator;\r\n    }\r\n\r\n    struct Bet {\r\n        uint256 amount;\r\n        uint8 choice;\r\n        bool exists;\r\n    }\r\n\r\n    address public oracleAddress;\r\n    Market[] public markets;\r\n    mapping(uint256 => mapping(address => Bet)) public userBets;\r\n    uint256 public nextMarketId;\r\n\r\n    constructor(address _oracleAddress) {\r\n        oracleAddress = _oracleAddress;\r\n    }\r\n\r\n    function createMarket(\r\n        string memory _title, \r\n        string memory _opA, \r\n        string memory _opB, \r\n        uint256 _durationSeconds\r\n    ) external {\r\n        require(_durationSeconds > 0, \"Duree invalide\");\r\n        markets.push(Market({\r\n            id: nextMarketId,\r\n            title: _title,\r\n            optionA: _opA,\r\n            optionB: _opB,\r\n            endTime: block.timestamp + _durationSeconds,\r\n            poolA: 0,\r\n            poolB: 0,\r\n            stage: Stage.Active,\r\n            winningOutcome: 0,\r\n            creator: msg.sender\r\n        }));\r\n        nextMarketId++;\r\n    }\r\n\r\n    function placeBet(uint256 _marketId, uint8 _choice) external payable {\r\n        Market storage m = markets[_marketId];\r\n        require(block.timestamp < m.endTime, \"Pari termine\");\r\n        require(msg.value > 0, \"Montant insuffisant\");\r\n        require(_choice == 0 || _choice == 1, \"Choix invalide\");\r\n        \r\n        Bet storage userBet = userBets[_marketId][msg.sender];\r\n\r\n        if (userBet.amount > 0) {\r\n            require(userBet.choice == _choice, \"Vous avez deja parie sur l'autre option\");\r\n        } else {\r\n            userBet.choice = _choice;\r\n            userBet.exists = true;\r\n        }\r\n\r\n        userBet.amount += msg.value;\r\n        \r\n        if (_choice == 0) m.poolA += msg.value;\r\n        else m.poolB += msg.value;\r\n    }\r\n\r\n    function resolveMarket(uint256 _marketId, uint8 _outcome, bytes memory _signature) external {\r\n        Market storage m = markets[_marketId];\r\n        require(block.timestamp >= m.endTime, \"Evenement non termine\");\r\n        require(m.stage != Stage.Resolved, \"Marche deja resolu\");\r\n\r\n        bytes32 messageHash = keccak256(abi.encodePacked(address(this), _marketId, _outcome));\r\n        bytes32 ethSignedMessageHash = MessageHashUtils.toEthSignedMessageHash(messageHash);\r\n\r\n        address signer = ethSignedMessageHash.recover(_signature);\r\n        require(signer == oracleAddress, \"Signature invalide\");\r\n\r\n        m.winningOutcome = _outcome;\r\n        m.stage = Stage.Resolved;\r\n    }\r\n\r\n    function claimGain(uint256 _marketId) external {\r\n        Market storage m = markets[_marketId];\r\n        require(m.stage == Stage.Resolved, \"Marche non resolu\");\r\n        \r\n        Bet storage userBet = userBets[_marketId][msg.sender];\r\n        require(userBet.amount > 0, \"Aucun pari trouve\");\r\n        require(userBet.choice == m.winningOutcome, \"Vous n'avez pas gagne\");\r\n\r\n        uint256 winningPool = (m.winningOutcome == 0) ? m.poolA : m.poolB;\r\n        uint256 losingPool = (m.winningOutcome == 0) ? m.poolB : m.poolA;\r\n        \r\n        uint256 reward = userBet.amount + (userBet.amount * losingPool / winningPool);\r\n        \r\n        userBet.amount = 0; \r\n        payable(msg.sender).transfer(reward);\r\n    }\r\n\r\n    function getMarkets() external view returns (Market[] memory) {\r\n        return markets;\r\n    }\r\n}",
  "sourcePath": "C:\\Users\\bapti\\Documents\\INSA\\Cours\\Cryptography-Blockchain\\M1_Cryptography_Blockchain\\contracts\\PredictionMarket.sol",
  "compiler": {
    "name": "solc",
    "version": "0.8.20+commit.a1b79de6.Emscripten.clang"
  },
  "schemaVersion": "3.4.16",
  "updatedAt": "2026-01-27T17:07:52.682Z",
  "networkType": "ethereum",
  "devdoc": {
    "errors": {
      "ECDSAInvalidSignature()": [
        {
          "details": "The signature derives the `address(0)`."
        }
      ],
      "ECDSAInvalidSignatureLength(uint256)": [
        {
          "details": "The signature has an invalid length."
        }
      ],
      "ECDSAInvalidSignatureS(bytes32)": [
        {
          "details": "The signature has an S value that is in the upper half order."
        }
      ]
    },
    "kind": "dev",
    "methods": {},
    "version": 1
  },
  "userdoc": {
    "kind": "user",
    "methods": {},
    "version": 1
  }
}